:020000041000EA
:1000000000001020A56D0010E16D0010E36D0010E0
:10001000E56D0010E76D0010E96D001000000000B4
:10002000000000000000000000000000EB6D001068
:10003000ED6D001000000000EF6D0010A5490010EC
:10004000F56D0010F76D001059500010FD4F0010B5
:10005000FD6D0010154E0010294E00103D4E001091
:10006000056E0010076E0010096E00100B6E001078
:100070000D6E0010394A0010C54D0010D94D00100A
:10008000156E0010176E0010196E00101B6E001018
:100090001D6E00101F6E0010216E0010236E0010E8
:1000A000FF4900100D4A00101B4A00102B6E001073
:1000B0001D4F00102B4F0010394F0010474F0010FC
:1000C000356E0010376E0010ED4D00103B6E0010C5
:1000D0004D4A00103F6E0010416E0010436E00103C
:1000E000456E0010476E0010496E00104B6E0010F8
:1000F0004D6E00104F6E0010516E0010536E0010C8
:10010000556E0010576E0010596E00105B6E001097
:100110005D6E00105F6E0010616E0010636E001067
:10012000656E0010676E0010294A00106B6E00109B
:100130006D6E00106F6E0010614A0010736E00103B
:10014000756E0010776E0010796E00107B6E0010D7
:10015000554F0010634F0010714F00107F4F00107B
:100160008D4F00109B4F0010A94F0010B74F00108B
:10017000C54F0010D34F0010E14F0010EF4F00109B
:10018000956E0010976E0010996E00109B6E001017
:100190009D6E00109F6E0010A16E0010A36E0010E7
:1001A000014E0010A76E0010A96E0010AB6E00107B
:1001B000AD6E0010AF6E0010B16E0010B36E001087
:1001C000B56E0010B76E0010B96E0010BB6E001057
:1001D000BD6E0010BF6E0010C16E0010C36E001027
:1001E000C56E0010C76E0010C96E0010CB6E0010F7
:1001F000CD6E0010CF6E0010D16E0010D36E0010C7
:100200000348044B834202D0034B03B118477047A5
:10021000C0050020C0050020000000000548064B76
:100220001B1AD90F01EBA301491002D0034B03B1F4
:1002300018477047C0050020C005002000000000DE
:1002400010B5064C237843B9FFF7DAFF044B13B11E
:100250000448AFF300800123237010BDC0050020C7
:1002600000000000B091001008B5044B1BB1044918
:100270000448AFF30080BDE80840CFE7000000006D
:10028000C4050020B091001080B584B000AF786044
:10029000124B1B68002B02D1104B114A1A600F4BF6
:1002A0001B68FB600D4B1A687B6813441A460D4BA4
:1002B0009A4207D907F07AF803460C221A604FF0E9
:1002C000FF3306E0054B1A687B681344034A13604A
:1002D000FB6818461037BD4680BD00BFDC05002016
:1002E0005011002000F00F2080B485B000AF4FF017
:1002F00080439B6803F46063BB60BB68B3F5606FC9
:100300002BD0BB68B3F5606F3FD8BB68B3F5406FC7
:1003100034D0BB68B3F5406F37D8BB68B3F5206FF6
:1003200025D0BB68B3F5206F2FD8BB68B3F5006F3D
:100330001AD0BB68B3F5006F27D8BB68B3F5C06FA0
:100340000ED0BB68B3F5C06F1FD8BB68002B12D0AE
:10035000BB68B3F5806F15D017E0174BFB6017E053
:100360004FF4FA53FB6013E0144BFB6010E04FF4C2
:10037000E103FB600CE0124BFB6009E04FF400432B
:10038000FB6005E00F4BFB6002E00C4BFB6000BF25
:100390004FF080439B689B0903F007037B60FA687A
:1003A0007B6822FA03F3084A136000BF1437BD4686
:1003B0005DF8047B704700BF0080BB00000E27077C
:1003C000008793030048E801E005002080B400AFF7
:1003D00000231846BD465DF8047B704780B400AF2B
:1003E00000BFBD465DF8047B704780B400AF0023BA
:1003F0001846BD465DF8047B704780B400AF00BF6F
:10040000BD465DF8047B704780B500AF00BF00BFFC
:10041000194B1A4A9A601A4B01221A60194B402252
:100420001A60174B00221A60174801F07FF916482E
:1004300001F087F9144801F079F90F4BD3F88830AF
:100440000D4A43F47003C2F88830BFF34F8F00BFEA
:10045000BFF36F8F00BF042002F082FBFFF744FF61
:10046000FFF7CBFFFFF7BAFFFFF7BFFF04F064FB16
:1004700062B600BF00BF80BD00ED00E000000010CC
:10048000000C00400C04004000A0024080B582B087
:1004900000AF78607B68002B43DB7B680F2B40DC70
:1004A00023497A6813469B0013449B000B441B6846
:1004B000002B36D001211F4802F008FA0346002B1A
:1004C00002D06FF005032EE019497A6813469B00AD
:1004D00013449B000B4400221A6015497A681346A6
:1004E0009B0013449B000B440C331B6800221A60D2
:1004F0000F497A6813469B0013449B000B440C334E
:1005000019680B487A6813469B0013449B00034408
:100510000C331B684A685A60064802F0FEF9002353
:1005200001E06FF0020318460837BD4680BD00BFEA
:10053000E40500202407002080B485B000AF786077
:10054000134B1B78002B1CD10023FB6013E000230E
:10055000BB600AE00F49FB685A01BB6813440022E4
:1005600041F82320BB680133BB60BB681F2BF1DD62
:10057000FB680133FB60FB68042BE8DD044B0122C0
:100580001A70002318461437BD465DF8047B704787
:10059000280C00202807002080B586B000AF7860C6
:1005A0007B68002B15D07B68012B10D07B68022B59
:1005B0000BD07B68032B06D07B68042B01D1214B29
:1005C00008E0002306E0204B04E0204B02E0204B33
:1005D00000E0204BFB60F86800F0AAFA78617969C6
:1005E000F86800F08BFA00233B6123E07B6903F09D
:1005F0000103002B18D018497B685A013B6913444A
:1006000051F82330002B0FD013497B685A013B6906
:10061000134451F8233011487A6851013A690A4469
:1006200050F82220104698473B6901333B617B69B3
:100630005B087B617B69002BD8D100BF00BF1837F6
:10064000BD4680BD00C000400004084000A000403E
:10065000009000400080004028070020A8090020EA
:1006600080B400AF034B1B781846BD465DF8047B91
:10067000704700BF290C002080B582B000AF7860C1
:100680007B6803F00103002B02D0002002F094F9F4
:100690007B6803F00203002B02D0012002F08CF9EA
:1006A0007B6803F00403002B02D0022002F084F9DF
:1006B0007B6803F00803002B02D0402002F07CF995
:1006C0007868FFF739FF034618460837BD4680BDF6
:1006D00080B586B000AF78607B681B683B617B6843
:1006E0001B68964A93421ED07B681B68944A9342CB
:1006F00017D07B681B68934A934210D07B681B68B5
:10070000914A934209D07B681B68904A934201D179
:10071000042309E04FF0FF3306E0032304E0022343
:1007200002E0012300E00023FB60FB68B3F1FF3F20
:1007300002D16FF00203CEE10122FB6802FA03F35B
:100740001846FFF799FF00F03BFA0346012B01D151
:100750000023C0E1FB68032B0DDC7B68997A7B6882
:100760005B681A46386900F0FDF978617B69002BF7
:1007700001D07B69AFE1FB68032B09DC7B68197A48
:100780007B685B681A46386900F06AFA786176E03F
:1007900000237B617B681B7A022B06D0022B6ADC6C
:1007A000002B45D0012B21D065E0694B1A6A7B688C
:1007B0005B685B0003F002017B685B681B0103F070
:1007C00020030B43624913430B62614B9A687B68B9
:1007D0005B685B0003F002017B685B685B0803F009
:1007E00001030B435A4913438B6048E0584B1A6A84
:1007F0007B685B685B0003F002017B685B681B0140
:1008000003F020030B43524913430B62504B9A6889
:100810007B685B685B0003F002017B685B685B08D8
:1008200003F001030B43DB43494913408B6026E08F
:10083000474B1A6A7B685B685B0003F002017B68C8
:100840005B681B0103F020030B43DB43404913406B
:100850000B623F4B9A687B685B685B0003F00201A8
:100860007B685B685B0803F001030B43DB4338499B
:1008700013408B6003E06FF010037B6100BF7B6966
:10088000002B01D07B6926E1FB68032B00F39880E5
:100890007B685B7A042B00F2908001A252F823F06F
:1008A000B50800100909001087090010D7080010CA
:1008B000550900103B691A6E7B685B68DB431A4080
:1008C0003B691A663B695A6E7B685B68DB431A407A
:1008D0003B695A66F0E03B691A6E7B685B681A43B5
:1008E0003B691A663B695A6E7B685B68DB431A405A
:1008F0003B695A663B69D3F8B8207B685B681A434A
:100900003B69C3F8B820D7E03B691A6E7B685B6827
:100910001A433B691A663B695A6E7B685B68DB4326
:100920001A403B695A663B69D3F8B8207B685B681C
:10093000DB431A403B69C3F8B820BDE000800040AB
:100940000090004000A000400004084000C00040AB
:10095000006C00403B691A6E7B685B68DB431A40A1
:100960003B691A663B695A6E7B685B681A433B6950
:100970005A663B69D3F8B8207B685B681A433B69C9
:10098000C3F8B82098E03B691A6E7B685B68DB436C
:100990001A403B691A663B695A6E7B685B681A436A
:1009A0003B695A663B69D3F8B8207B685B68DB43D8
:1009B0001A403B69C3F8B8207EE06FF002038AE07A
:1009C0007B685B7A042B74D801A252F823F000BF35
:1009D000E5090010070A0010610A0010070A00105C
:1009E000610A00103E4B1A6A7B685B689B0003F04B
:1009F00004017B685B685B0103F040030B433849EB
:100A000013430B6258E0364B1A6A7B685B685B00E5
:100A100003F002017B685B681B0103F020031943AC
:100A20007B685B689B0003F004007B685B685B018C
:100A300003F0400303430B43DB43294913400B629C
:100A4000274B1A6A7B685B6803F001017B685B686F
:100A5000DB0003F010030B43214913430B622BE02F
:100A60001F4B1A6A7B685B685B0003F002017B68BE
:100A70005B681B0103F0200319437B685B689B00E4
:100A800003F004007B685B685B0103F040030343F1
:100A900019437B685B6803F001007B685B68DB00DF
:100AA00003F0100303430B43DB430D4913400B6278
:100AB00002E06FF002030EE07B681B7A002B01D18D
:100AC000002308E07B68D97A7B685B681A4638693E
:100AD00000F064F8034618461837BD4680BD00BFD5
:100AE000006C004080B582B000AF78607868FFF796
:100AF00053FD00BF0837BD4680BD000080B582B001
:100B000000AF786039607B68074A934205D1074A95
:100B10003B6803F00303536203E03968786800F030
:100B200056F80837BD4680BD00C000400068004050
:100B300080B582B000AF78607B68084A934204D1E8
:100B4000074B5B6A03F0030303E0786800F04DF89D
:100B5000034618460837BD4680BD00BF00C00040B0
:100B60000068004080B584B000AFF8600B467A6042
:100B7000FB72FB68084A934202D16FF0100306E053
:100B8000FB7A7A681946F86800F03BF80346184685
:100B90001037BD4680BD00BF00C0004080B584B0A6
:100BA00000AFF8600B467A60FB72FB7A7A681946F0
:100BB000F86800F0E1F8034618461037BD4680BDDE
:100BC00080B500AFFFF74CFD0346184680BD80B4EA
:100BD00083B000AF786039607B683A689A6400BF80
:100BE0000C37BD465DF8047B704780B483B000AF1E
:100BF00078607B681B6C18460C37BD465DF8047B3B
:100C0000704780B584B000AFF8600B467A60FB7225
:100C1000FFF7D6FF0346012B01D100231CE0FB7A2E
:100C2000002B02D0012B0AD012E0FB68D3F8C020C1
:100C30007B68DB431A40FB68C3F8C0200BE0FB680D
:100C4000D3F8C0207B681A43FB68C3F8C02002E0D9
:100C50006FF0020300E0002318461037BD4680BD48
:100C600080B584B000AFF8600B467A60FB72FFF786
:100C7000A7FF0346012B01D1002379E0FB681A6B23
:100C80007B681A43FB681A63FB687A685A60FB7AD0
:100C9000052B69D801A252F823F000BFB50C001053
:100CA000D70C0010F90C0010150D0010310D0010BC
:100CB0004D0D0010FB687A685A61FB687A685A60CB
:100CC000FB687A681A67FB687A68DA67FB687A6893
:100CD000C3F888204BE0FB687A681A61FB687A6881
:100CE0005A60FB687A681A67FB687A68DA67FB689B
:100CF0007A68C3F888203AE0FB687A68C3F88820ED
:100D0000FB687A68DA67FB687A681A67FB687A6852
:100D10009A602CE0FB687A68C3F88820FB687A68E0
:100D2000DA67FB687A68DA66FB687A689A601EE0C0
:100D3000FB687A68C3F88820FB687A689A67FB6862
:100D40007A681A67FB687A689A6010E0FB687A68CC
:100D5000C3F88820FB687A689A67FB687A68DA6665
:100D6000FB687A689A6002E06FF0020300E00023FB
:100D700018461037BD4680BD80B584B000AFF8601E
:100D80000B467A60FB72FFF71BFF0346012B01D174
:100D9000002368E0FB7A032B52D801A252F823F01B
:100DA000B10D0010D70D0010FB0D00101F0E00102C
:100DB000FB68D3F8B0207B68DB431A40FB68C3F8BC
:100DC000B020FB68D3F8B4207B68DB431A40FB6893
:100DD000C3F8B42046E0FB68D3F8B0207B681A4320
:100DE000FB68C3F8B020FB68D3F8B4207B68DB4312
:100DF0001A40FB68C3F8B42034E0FB68D3F8B02095
:100E00007B68DB431A40FB68C3F8B020FB68D3F86B
:100E1000B4207B681A43FB68C3F8B42022E0FB6867
:100E2000D3F8B0207B681A43FB68C3F8B020FB6896
:100E3000D3F8B4207B681A43FB68C3F8B42011E0F0
:100E4000FB68D3F8B0207B68DB431A40FB68C3F82B
:100E5000B020FB68D3F8B4207B68DB431A40FB6802
:100E6000C3F8B420002318461037BD4680BD00BF2C
:100E700080B582B000AF7860786800F035F803463E
:100E800018460837BD4680BD80B584B000AFF86015
:100E9000B9607A607A68B968F86800F043F8034688
:100EA00018461037BD4680BD80B584B000AFF860ED
:100EB000B9607A607A68B968F86800F05EF803464D
:100EC00018461037BD4680BD80B582B000AF78604F
:100ED000044B1B681946786800F0DAFB00BF08373E
:100EE000BD4680BD0000002080B483B000AF7860B4
:100EF0007B68002B02D14FF0FF330DE07B681B6B4A
:100F000043F004027B681A6300BF7B681B6B03F02D
:100F10000403002BF9D1002318460C37BD465DF8B9
:100F2000047B704780B487B000AFF860B9607A6026
:100F300000237B61FB68002B02D0BB68002B0BD128
:100F40004FF0FF3313E0FB68D96A7B695A1C7A6162
:100F5000BA681344CAB21A707A687B699A4205D992
:100F6000FB685B6803F00203002BECD07B6918463A
:100F70001C37BD465DF8047B704780B487B000AF76
:100F8000F860B9607A6000237B61FB68002B02D0B7
:100F9000BB68002B0CD14FF0FF3314E07B695A1C67
:100FA0007A61BA6813441B78DBB21A46FB68DA62CE
:100FB0007A687B699A4205D9FB685B6803F0100385
:100FC000002BEBD07B6918461C37BD465DF8047BCF
:100FD000704780B483B000AF78607B68DB6943F012
:100FE00080027B68DA6100BF7B68DB6903F0800305
:100FF000002BF9D100BF00BF0C37BD465DF8047B64
:10100000704780B483B000AF78607B685B6A43F060
:1010100080027B685A6200BF7B685B6A03F08003D2
:10102000002BF9D100BF00BF0C37BD465DF8047B33
:10103000704780B485B000AFF860B9607A60FB6833
:10104000BA689A60FB687A681A6100BF1437BD46B7
:101050005DF8047B7047000080B584B000AF786015
:1010600039607B68114A93420ED07B68104A9342E4
:1010700008D07B680F4A934201D1022305E04FF06C
:10108000FF3302E0012300E000230B4A52F8233033
:10109000FB60FB68DB69002B04D0FB68DB69396807
:1010A000F868984700BF1037BD4680BD00D00140AA
:1010B00000E0014000F001402C0C002080B483B01F
:1010C00000AF78607B680022DA607B6800225A619A
:1010D0007B689A687B689A607B681A697B681A618A
:1010E0007B680E4A93420ED07B680D4A934208D02B
:1010F0007B680C4A934201D1022305E04FF0FF3395
:1011000002E0012300E00023074A002142F82310F7
:1011100000BF0C37BD465DF8047B704700D001402E
:1011200000E0014000F001402C0C002080B586B0AA
:1011300000AF7860924A7B6852F823307B61914A15
:101140007B6852F823303B617B68002B0BD07B68B7
:10115000012B06D07B68022B01D18B4B04E00023CE
:1011600002E08A4B00E08A4BFB608A4A7B6852F8B7
:101170002330BB60FB689B6803F4FE43002B19D04F
:10118000FB689A68FB689A60FB681A69FB681A61D9
:10119000FB680022DA60FB6800225A61F868FFF7FA
:1011A00067FE6FF00801F868FFF756FFF868FFF771
:1011B00085FFE2E0BB68DB687A699A4243D2FB684C
:1011C0009B6803F02003002B13D0BB689A687B69EF
:1011D000D118BB68DA687B69D31A1A46F868FFF73A
:1011E00063FE03461A467B6913447B61FB68202239
:1011F0009A60BB68DB687A699A4206D2FB68DB6852
:1012000043F02002FB68DA6005E0FB68DB6823F04E
:101210002002FB68DA60BB68DB687A699A4212D107
:10122000BB685B69002B0ED0FB681B6B43F00202AE
:10123000FB681A63FB6801229A60FB68DB6843F075
:101240000102FB68DA60BB685B693A699A4219D2AD
:10125000FB689B6803F01103002B13D0BB681A696D
:101260003B69D118BB685A693B69D31A1A46F868BA
:10127000FFF70AFE03461A463B6913443B61FB68CD
:1012800010229A60BB68DB687A699A423AD1BB68DF
:101290005B693A699A4235D0FB689B6803F00103A9
:1012A000002B2FD0FB6801229A603B69002B06D1EE
:1012B000BB685B685B0043F00102FB68DA62BB68F5
:1012C0005A693B69D31AB3F5807F03D9FB680022C2
:1012D0001A6205E0BB685A693B69D21AFB681A6258
:1012E000BB685B693A699A4206D2FB68DB6843F0E7
:1012F0001102FB68DA6005E0FB68DB6823F011028D
:10130000FB68DA60BB68DB687A699A422BD1BB68FC
:101310005B693A699A4226D1FB680022DA60FB6871
:1013200000225A61FB689A68FB689A60FB681A6938
:10133000FB681A61BB689B69002B06D0FB681B6BBE
:1013400043F00202FB681A6305E0FB681B6B43F085
:101350000402FB681A630021F868FFF77DFEF86855
:10136000FFF7ACFE09E006497B687A6941F8232063
:1013700004497B683A6941F823201837BD4680BD8F
:10138000380C0020440C002000F0014000E0014037
:1013900000D001402C0C002080B586B000AFF86072
:1013A000B9607A603B60FB689B687B613B680022A8
:1013B0001A607B6903F4FE43002B36D03B686FF064
:1013C00008021A60BB68002B04D0BB683A6804218D
:1013D000F868984707226FF07F41F868FFF729FE09
:1013E000F868FFF70EFEF868FFF7F3FD7B68002250
:1013F0001A607B68043300221A60FB68924A9342A9
:101400000ED0FB68914A934208D0FB68904A934201
:1014100001D1022305E04FF0FF3302E0012300E099
:1014200000238C4A002142F823107B681B6803F0DC
:101430001003002B06D17B6804331B6803F0010303
:10144000002B20D07B6903F01003002B0AD0BB686F
:10145000002B04D0BB6800220221F8689847FB6883
:1014600010229A60FB681B6903F00103002B0AD06D
:10147000BB68002B04D0BB6800220621F86898479F
:10148000FB6801221A617B681A6848F22003134046
:10149000002B06D17B6804331B6803F00203002B8A
:1014A00053D07B6903F02003002B0AD0BB68002BCC
:1014B00004D0BB6800220321F8689847FB6820220B
:1014C0009A60FB681B6903F00203002B0AD0BB681B
:1014D000002B04D0BB6800220521F8689847FB6800
:1014E00002221A617B6903F40043002B2DD03B6874
:1014F00000221A60BB68002B04D0BB683A68042144
:10150000F8689847FB684FF400429A607B680022B5
:101510001A607B68043300221A60FB684A4A9342CF
:101520000ED0FB68494A934208D0FB68484A934270
:1015300001D1022305E04FF0FF3302E0012300E078
:101540000023444A002142F823107B681B6803F003
:101550000103002B3DD07B6903F04003002B2DD00D
:101560003B6800221A60BB68002B04D0BB683A6855
:101570000421F8689847FB6840229A607B68002243
:101580001A607B68043300221A60FB682E4A93427B
:101590000ED0FB682D4A934208D0FB682C4A934238
:1015A00001D1022305E04FF0FF3302E0012300E008
:1015B0000023284A002142F823100AE07B6903F047
:1015C0000103002B05D0FB6801229A607B6808228A
:1015D0001A607B681B6803F00803002B53D07B69FB
:1015E00003F00803002B4ED07B6903F04003002B6F
:1015F00007D07B6903F00103002B02D1FB68402276
:101600009A60FB681B6803F40063002B24D0BB685E
:10161000002B04D0BB6800220121F8689847FB68C2
:101620004FF480029A60FB6808229A60FB684FF4CE
:1016300000429A607B684FF621721A607B6804331F
:1016400002221A601FE000BF00D0014000E001400C
:1016500000F001402C0C0020BB68002B04D0BB68BC
:1016600000220021F8689847FB684FF400029A6056
:10167000FB6808229A607B6847F611721A607B68E3
:10168000043301221A6000BF1837BD4680BD00BF79
:1016900080B588B000AF786039607B681F4A93429C
:1016A0000ED07B681E4A934208D07B681D4A934245
:1016B00001D1022305E04FF0FF3302E0012300E0F7
:1016C0000023FB61FB69002B23DB7B681B6803F0B5
:1016D0000203002B03D0F869FFF728FD1AE0124A35
:1016E000FB6952F82330BB617B68DB68FB607B6879
:1016F0005B693B6107F1140307F10C02B969786873
:10170000FFF74AFEFA687B68DA603A697B685A61DB
:1017100000E000BF2037BD4680BD00BF00D00140C3
:1017200000E0014000F001402C0C002080B582B0A8
:1017300000AF7860786800F01EF800BF0837BD463B
:1017400080BD80B582B000AF7860786800F03EF868
:1017500000BF0837BD4680BD80B483B000AF78605D
:101760007B68D3F8003103F4803318460C37BD464C
:101770005DF8047B704780B582B000AF78607B680D
:10178000D3F8003123F001027B68C3F800217B68A5
:101790000122C3F8002700BF7868FFF7DDFF03468A
:1017A000002BF9D07B68D3F8003143F001027B684D
:1017B000C3F8002100BF7868FFF7CEFF0346002B77
:1017C000F9D000BF00BF0837BD4680BD80B483B0EC
:1017D00000AF78607B68D3F8003123F001027B68AA
:1017E000C3F8002100BF0C37BD465DF8047B70478D
:1017F00080B500AF024800F015F80346184680BDDA
:101800000060004080B582B000AF7860796804481D
:1018100000F016F8034618460837BD4680BD00BFE5
:101820000060004080B483B000AF78607B681B69C3
:1018300003F0D00318460C37BD465DF8047B7047B3
:1018400080B483B000AF786039607B681A693B6808
:1018500003F0D003DB431A407B681A61002318466B
:101860000C37BD465DF8047B7047000080B58CB036
:1018700002AFF8607B600B46FB721346BB72FB7ACB
:101880007B62BB7A3B627B68FB6197F83030BB615F
:101890007B6B7B61FB687F4A93421AD0FB687E4A70
:1018A000934214D0FB687D4A93420ED0FB687C4A79
:1018B000934208D0FB687B4A934201D1042309E09C
:1018C0004FF0FF3306E0032304E0022302E001238C
:1018D00000E000233B61FB69042B02DD6FF0020393
:1018E000D3E03B69022B08DC6F4B1B685A087B690D
:1018F0009A4202D26FF00203C7E03B69022B07DD78
:101900007A69694B1B689A4202D96FF00203BCE006
:10191000FB68604A93421ED10D2001F0E1F90620D8
:1019200001F04AF86148FEF7D3FE97F83830002BF3
:1019300002D05F48FEF7CCFE97F83930002B02D07A
:101940005C48FEF7C5FE97F83A30002B00F0928015
:101950006FF0020399E0FB684F4A93421ED10E20BC
:1019600001F0BEF9072001F027F85348FEF7B0FE5A
:1019700097F83830002B02D05048FEF7A9FE97F8B0
:101980003930002B02D04E48FEF7A2FE97F83A30CD
:10199000002B6FD04B48FEF79BFE6BE0FB683F4A85
:1019A00093421ED10F2001F09BF9082001F004F8AA
:1019B0004548FEF78DFE97F83830002B02D043489B
:1019C000FEF786FE97F83930002B02D04048FEF72C
:1019D0007FFE97F83A30002B4CD03E48FEF778FE59
:1019E00048E0FB682E4A93421ED12B2001F078F983
:1019F000302000F0E1FF3848FEF76AFE97F83830F3
:101A0000002B02D03548FEF763FE97F83930002BE3
:101A100002D03348FEF75CFE97F83A30002B29D00D
:101A20003048FEF755FE25E0FB681E4A93421ED162
:101A30002D2001F055F9312000F0BEFF2A48FEF7B5
:101A400047FE97F83830002B02D02848FEF740FEBA
:101A500097F83930002B02D02548FEF739FE97F869
:101A60003A30002B06D02348FEF732FE02E06FF03A
:101A700001030AE0BB697A6901920093FB693A6A43
:101A8000796AF86800F0BCF9034618462837BD4665
:101A900080BD00BF0060044000700440008004402E
:101AA00000E00B4000E40B40E00500200090001037
:101AB0000C9000101890001024900010309000102E
:101AC0003C9000104890001054900010609000105E
:101AD0006C9000107890001084900010909000108E
:101AE0009C900010A8900010B4900010C0900010BE
:101AF000CC900010D890001080B584B000AF786012
:101B00007B68294A93421AD07B68284A934214D0B2
:101B10007B68274A93420ED07B68264A934208D0BE
:101B20007B68254A934201D1042309E04FF0FF333B
:101B300006E0032304E0022302E0012300E0002387
:101B4000FB60786800F05CFA7B68174A934203D127
:101B5000062000F0F3FE22E07B68144A934203D192
:101B6000072000F0EBFE1AE07B68114A934203D194
:101B7000082000F0E3FE12E07B680E4A934203D196
:101B8000302000F0DBFE0AE07B680B4A934203D171
:101B9000312000F0D3FE02E06FF0010300E00023EB
:101BA00018461037BD4680BD0060044000700440F8
:101BB0000080044000E00B4000E40B4080B485B09E
:101BC00000AF78600023FB607B68434A93420FD0EC
:101BD0007B68424A93420BD07B68414A934207D0CC
:101BE0007B68404A934203D07B683F4A934218D1B6
:101BF0007B68394A93420FD07B68384A93420BD0B6
:101C00007B68374A934207D07B68364A934208D0B4
:101C10007B68354A934204D0344B1B685B08FB60F9
:101C20004FE07B682C4A934248D07B682B4A934212
:101C300044D07B682A4A934240D07B68294A934229
:101C400003D07B68284A934238D14FF080439B6889
:101C50005B0A03F00703BB60BB68072B2AD801A20D
:101C600052F823F0991C0010B51C00108B1C0010BA
:101C70009F1C0010851C0010911C0010A71C001058
:101C8000AF1C00101A4BFB6017E01A4BFB6014E00E
:101C90004FF4E103FB6010E0174BFB600DE04FF4E5
:101CA000FA53FB6009E04FF40043FB6005E0134B7F
:101CB000FB6002E06FF0020307E002E06FF0020356
:101CC00003E0FB68DA0F13445B1018461437BD4677
:101CD0005DF8047B704700BF006004400070044062
:101CE0000080044000E00B4000E40B40E0050020D1
:101CF000000E27070048E801008793030080BB001F
:101D000080B582B000AF786039603968786800F0DB
:101D100045FA034618460837BD4680BD80B582B0F7
:101D200000AF786039603968786800F09FFA034640
:101D300018460837BD4680BD80B582B000AF7860D8
:101D4000786800F015FB034618460837BD4680BD8D
:101D500080B582B000AF78600B46FB70FB78194607
:101D6000786800F01DFB034618460837BD4680BD65
:101D700080B582B000AF78600B46FB70FB781946E7
:101D8000786800F049FB034618460837BD4680BD19
:101D900080B584B000AFF860B9607A607A68B968DD
:101DA000F86800F089FB034618461037BD4680BD31
:101DB00080B582B000AF7860786800F0DFFB034642
:101DC00018460837BD4680BD80B584B000AFF860C6
:101DD000B9607A607A68B968F86800F0DEFB03469B
:101DE00018461037BD4680BD80B582B000AF786020
:101DF000786800F030FC034618460837BD4680BDC1
:101E000080B586B000AFF860B9607A603B60FB686F
:101E1000744A93421AD0FB68734A934214D0FB6809
:101E2000724A93420ED0FB68714A934208D0FB6815
:101E3000704A934201D1042309E04FF0FF3306E0DA
:101E4000032304E0022302E0012300E000237B617E
:101E50007B69002B02DA6FF00203BEE066497A6903
:101E600013469B001344DB000B4400221A606249B6
:101E70007A6913469B001344DB000B4408330022AD
:101E80001A605D497A6913469B001344DB000B44DA
:101E90000C3301221A6058497A6913469B00134497
:101EA000DB000B44103300221A6053497A69134651
:101EB0009B001344DB000B441C3300221A604E4984
:101EC0007A6913469B001344DB000B442033002245
:101ED0001A6049497A6913469B001344DB000B449E
:101EE00014336FF001021A6043497A6913469B006C
:101EF0001344DB000B4418336FF001021A603E49B3
:101F00007A6913469B001344DB000B4427330122FC
:101F10001A70FB6801225A60FB68384A1A61BB6874
:101F2000002B06D0FB685B6843F00202FB685A6036
:101F300005E0FB685B6823F00202FB685A60796A7F
:101F4000F868FFF7DDFE3B6AFF2B02D96FF0020352
:101F500043E0FB68DA683B6A1B041A43FB68DA60FB
:101F6000FB681A6AFB681A6223497A6913469B0068
:101F70001344DB000B4427331B78002B23D03B6832
:101F8000012B05D1FB685B6843F48032FB685A6023
:101F90003B68022B05D1FB685B6843F44032FB6869
:101FA0005A603B68032B05D1FB685B6843F4E02271
:101FB000FB685A603B68042B05D1FB685B6843F4FF
:101FC0007022FB685A607B68002B05D0FB68DB68D9
:101FD00043F40052FB68DA60002318461837BD4608
:101FE00080BD00BF006004400070044000800440D9
:101FF00000E00B4000E40B40500C00200101010008
:1020000080B584B000AF78607B685E4A93421AD096
:102010007B685D4A934214D07B685C4A93420ED041
:102020007B685B4A934208D07B685A4A934201D14D
:10203000042309E04FF0FF3306E0032304E002230A
:1020400002E0012300E00023FB607B6800225A626B
:102050007B681A6A7B681A627B685B6823F00102FE
:102060007B685A607B68DB6923F040127B68DA6129
:102070004949FA6813469B001344DB000B441B6874
:10208000002B2AD04449FA6813469B001344DB0016
:102090000B441B68BB60FA6813469B001344DB00CB
:1020A0003D4A1344184600F038FC3B49FA68134691
:1020B0009B001344DB000B441B685B6A002B0CD0B5
:1020C0003549FA6813469B001344DB000B441B6838
:1020D0005B6A6FF00E01B86898477B6800225A600F
:1020E0007B6800229A607B680022DA607B680022AD
:1020F0001A612949FA6813469B001344DB000B441C
:1021000014331B68002B16DB2349FA6813469B0027
:102110001344DB000B4414331B681846FEF7B6F972
:102120001D49FA6813469B001344DB000B4414332B
:102130006FF001021A601849FA6813469B001344B5
:10214000DB000B4418331B68002B16DB1249FA68BE
:1021500013469B001344DB000B4418331B681846DE
:10216000FEF794F90C49FA6813469B001344DB0010
:102170000B4418336FF001021A6000231846103721
:10218000BD4680BD006004400070044000800440F3
:1021900000E00B4000E40B40500C002080B586B0FE
:1021A00000AF78603960304B1B685B083A689A4230
:1021B00002D96FF0020353E07868FFF7FFFC034693
:1021C000BB60BA683B68B2FBF3F3BB60BB685B08FB
:1021D0007B61BB685B083B610023FB60BB6803F06D
:1021E0000103002B10D07B6901337B610CE07B691C
:1021F000DA0F13445B107B613B69DA0F13445B1009
:102200003B61FB680133FB607B690F2B02DDFB68E0
:10221000072BECDDFB68082B03D10F233B610F2359
:102220007B617B685B6923F0FF023B69DBB21A4389
:102230007B685A617B685B6923F47F427B691B0280
:102240009BB21A437B685A617B685B6923F47022F6
:10225000FB681B0403F470231A437B685A61002354
:1022600018461837BD4680BDE005002080B485B013
:1022700000AF786039603B68012B02D03B68102BBF
:1022800002DD6FF0020360E07B68334A93421AD0AC
:102290007B68324A934214D07B68314A93420ED015
:1022A0007B68304A934208D07B682F4A934201D121
:1022B000042309E04FF0FF3306E0032304E0022388
:1022C00002E0012300E00023FB607B681B6B03F04E
:1022D0000103002B37D12549FA6813469B001344AC
:1022E000DB000B440C331B68012B2CD17B685B6833
:1022F00023F001027B685A6039681C48FA6813466B
:102300009B001344DB000344083319603B680F2B28
:102310000BDC7B68DB6823F470623B681B0203F410
:1023200070631A437B68DA6005E07B68DB6823F43E
:1023300070627B68DA607B685B6843F001027B68EF
:102340005A60002301E06FF0060318461437BD46BB
:102350005DF8047B704700BF0060044000700440DB
:102360000080044000E00B4000E40B40500C0020D3
:1023700080B483B000AF78607B68DB6803F470637F
:10238000002B01D1102304E07B68DB681B0A03F0FB
:102390000F0318460C37BD465DF8047B70470000FC
:1023A00080B483B000AF78600B46FB707B68DB685D
:1023B00023F430427B68DA60FB78032B24D801A237
:1023C00052F823F0D5230010E3230010ED23001072
:1023D000FB2300107B68DB6843F400427B68DA6013
:1023E00012E07B68DA687B68DA600DE07B68DB68A6
:1023F00043F480527B68DA6006E07B68DB6843F474
:1024000000527B68DA6000BF002318460C37BD46D7
:102410005DF8047B704700BF80B483B000AF786084
:102420000B46FB70FB78032B3ED801A252F823F039
:10243000412400105B240010752400108F2400102C
:102440007B68DB6823F001027B68DA607B68DB680D
:1024500023F002027B68DA6027E07B68DB6843F0E8
:1024600001027B68DA607B68DB6823F002027B682C
:10247000DA601AE07B68DB6823F001027B68DA60CF
:102480007B68DB6843F002027B68DA600DE07B6802
:10249000DB6843F001027B68DA607B68DB6843F04D
:1024A00002027B68DA6000E000BF002318460C37A8
:1024B000BD465DF8047B704780B588B000AFF8601A
:1024C000B9607A60BB68002B02D07B68002B01D119
:1024D00000234FE0F868FFF76BFCB861F868FFF77E
:1024E0002BFC03467B617A68BB699A4201D9BB69C0
:1024F0007B607B69082B03D97B6823F001037B6039
:102500000023FB6132E07B69082B23D97B68032B16
:102510000CD9BA68FB691344FA6812681A607B68C0
:10252000043B7B60FB690433FB610FE07B68012B9C
:102530000CD9BA68FB691344FA68128892B21A80FF
:102540007B68023B7B60FB690233FB617B68012B8C
:102550000CD10EE0FB695A1CFA61BA681344FA68A0
:102560001278D2B21A707B68013B7B607B68002BCB
:10257000C9D1FB6918462037BD4680BD80B483B001
:1025800000AF78607B68DB691B0E03F03F031846E1
:102590000C37BD465DF8047B704780B588B000AF4E
:1025A000F860B9607A60BB68002B02D07B68002BB2
:1025B00001D100234BE0F868FFF716FCB861F8681A
:1025C000FFF7BAFB03467B617A68BB699A4201D97F
:1025D000BB697B607B69082B03D97B6823F001030F
:1025E0007B600023FB612EE07B69082B20D97B6890
:1025F000032B0CD9FB68B968FA690A4412681A609F
:102600007B68043B7B60FB690433FB611BE07B68F8
:10261000012B18D9FB68B968FA690A44128892B28A
:102620001A807B68023B7B60FB690233FB610AE036
:10263000FB695A1CFA61BA6813441A78FB681A706D
:102640007B68013B7B607B68002BCDD1FB69184622
:102650002037BD4680BD80B483B000AF78607B6812
:10266000DB691B0A03F03F03C3F1200318460C3754
:10267000BD465DF8047B704780B500AF0F4B1B680B
:1026800003F48033002B16D00D4B1B68002B05DDA7
:102690000B4B1B68013B0A4A13600CE000F0BEF8CC
:1026A000084B1B68002B06D0064B1B680020984780
:1026B000044B00221A6000BF80BD00BF10E000E0A4
:1026C00004000020200D00202DE9B04386B000AFAB
:1026D00078603649896879613449096821F4803124
:1026E000334801603149096801F00101002911D125
:1026F0002E496FF07F4048602C496FF07F40886022
:102700002A49052008606FF07F4179614FF08071A0
:10271000396103E025494968013139617968002050
:10272000884681462349096800200A46034602FB81
:1027300009F008FB03F10144A8FB02454B191D46B3
:102740001D4A4FF000032046294604F0D7FB0246FD
:102750000B461346FB60FA683B69B2FBF3F31A467B
:10276000164B1A60FB683A69B3FBF2F2396901FB58
:1027700002F29B1ABB60BA687B699A420CD30F4B7A
:102780001B6801330D4A13607A69BB68D21A3B6932
:1027900013440B4A136004E07A69BB68D31A084AF1
:1027A000136000BF1837BD46BDE8B08310E000E0FD
:1027B0001C0D0020E005002040420F000400002016
:1027C000180D002080B582B000AF78603960104AE3
:1027D0003B6813600F4B1B68002B02DD6FF0050395
:1027E00012E07B68002B01D100230DE07868FFF731
:1027F0006BFF084B1B68002B05DD074B1B68064A67
:1028000043F002031360002318460837BD4680BD1D
:10281000200D00200400002010E000E080B500AF93
:102820000A4B1B68002B07D0084B1B686FF00F008A
:102830009847064B00221A60054A064B1B68136036
:10284000054B4FF0FF321A6000BF80BD200D002005
:1028500010E000E01C0D00200400002080B582B0D4
:1028600000AF7860164B1B68002B02DD6FF005038C
:1028700021E07B68002B01D100231CE07868FFF782
:1028800023FF0AE00F4B1B6803F48033002B04D0B6
:102890000B4B1B68013B0A4A1360094B1B68002B5A
:1028A000F0DC00BF074B9A68074B1B689A42F9D8C7
:1028B000FFF7B4FF002318460837BD4680BD00BFB0
:1028C0000400002010E000E0180D002080B489B062
:1028D00000AF786039607B68FB61FB6953E8003FBB
:1028E000BB61BB69002B02D06FF005030FE03B68B2
:1028F0007B617B683B6139697A6941E80023FB6051
:10290000FB68002BE7D1BFF35F8F00BF00231846A1
:102910002437BD465DF8047B704780B483B000AFB8
:102920007860BFF35F8F00BF7B6800221A6000BF32
:102930000C37BD465DF8047B7047000080B483B05F
:1029400000AF0346FB71FB793F2B0DD9FB79403B70
:10295000FB71184BDB68FA79012101FA02F211468A
:10296000144A0B43D3601EE0FB791F2B0FD9FB7970
:10297000203BFB714FF080439B6CFA79012101FAF7
:1029800002F211464FF080420B4393640BE04FF08C
:1029900080435B6AFA79012101FA02F211464FF095
:1029A00080420B43536200BF0C37BD465DF8047B89
:1029B000704700BF0000084080B483B000AF0346FA
:1029C000FB71FB793F2B0ED9FB79403BFB71194B17
:1029D000DB68FA79012101FA02F2D2431146154A65
:1029E0000B40D36020E0FB791F2B10D9FB79203BF3
:1029F000FB714FF080439B6CFA79012101FA02F2DE
:102A0000D24311464FF080420B4093640CE04FF0EC
:102A100080435B6AFA79012101FA02F2D24311463E
:102A20004FF080420B40536200BF0C37BD465DF84B
:102A3000047B70470000084080B582B000AF0346B9
:102A4000FB71FB79072B6CD801A252F823F000BF71
:102A5000A92A0010232B0010DB2A0010CF2A001017
:102A6000712A00108D2A0010072B0010C52A0010B3
:102A70004FF080439B684FF0804243F40023936003
:102A80004FF0006000F056F803464CE04FF08043F2
:102A90009B684FF0804243F4801393604FF0805066
:102AA00000F048F803463EE04FF080439B684FF04B
:102AB000804243F4802393604FF0806000F03AF846
:102AC000034630E01A48FDF703FE03462BE04FF0C3
:102AD000005000F02FF8034625E04FF080435B6F75
:102AE0004FF0804243F0110353674FF080439B68DF
:102AF0004FF0804243F4803393604FF0807000F0D9
:102B000019F803460FE04FF080439B684FF0804276
:102B100043F4003393604FF0007000F00BF803466D
:102B200001E06FF0020318460837BD4680BD00BFC4
:102B3000F48F001080B582B000AF786000214FF4B0
:102B40007A70FFF73FFE00BF4FF080439A687B68C2
:102B50001340002BF8D0002318460837BD4680BD2F
:102B600080B584B000AF0346FB714FF080439B6893
:102B700003F46063FB60FB79072B00F2918001A2F4
:102B800052F823F0CF2B0010A12C0010372C00108E
:102B9000612C0010A52B0010F52B0010772C0010D5
:102BA0001F2C00104FF080439B6803F40023002B80
:102BB00002D10420FFF740FF4FF080439B6823F4CD
:102BC00060634FF0804243F4006393606BE04FF02A
:102BD00080439B6803F48023002B02D10020FFF781
:102BE0002BFF4FF080439B684FF0804223F46063DB
:102BF000936058E04FF080439B6803F48013002BF0
:102C000002D10520FFF718FF4FF080439B6823F4A3
:102C100060634FF0804243F42063936043E00720F9
:102C2000FFF70AFF4FF080439B684FF0804243F468
:102C30006063936037E04FF080439B6803F4803318
:102C4000002B02D10220FFF7F7FE4FF080439B6874
:102C500023F460634FF0804243F48063936022E08A
:102C60004FF080439B6823F460634FF0804243F44D
:102C7000C063936017E04FF080439B6803F4003318
:102C8000002B02D10620FFF7D7FE4FF080439B6850
:102C900023F460634FF0804243F44063936002E0AA
:102CA0006FF0020318E04FF40050FFF743FF0346B4
:102CB000002B0ED04FF080439B6823F46062FB68CA
:102CC00003F460634FF0804113438B606FF009039E
:102CD00002E0FDF709FB002318461037BD4680BD12
:102CE00080B483B000AF0346FB71FB793F2B12D950
:102CF000FB79403BFB71FB7901229A401D4B9A60A6
:102D000000BF1C4B9B68FA79012101FA02F21340C3
:102D1000002BF6D128E0FB791F2B14D9FB79203B3F
:102D2000FB71FB7901229A404FF080435A6400BF47
:102D30004FF080435B6CFA79012101FA02F21340F3
:102D4000002BF5D110E0FB7901229A404FF080432F
:102D50005A6000BF4FF080435B68FA79012101FAA5
:102D600002F21340002BF5D100BF0C37BD465DF8D1
:102D7000047B70470000084080B582B000AF7860E7
:102D8000786800F005F800BF0837BD4680BD000038
:102D900080B485B000AF78607B68194A934220D038
:102DA0007B68184A93421AD07B68174A934214D022
:102DB0007B68164A93420ED07B68154A934208D02E
:102DC0007B68144A934201D105230BE04FF0FF3397
:102DD00008E0042306E0032304E0022302E00123C9
:102DE00000E00023FB607B68DB6843F001127B6836
:102DF000DA6000BF1437BD465DF8047B704700BF42
:102E0000000001400010014000200140003001405E
:102E1000000C08400010084080B582B000AF786018
:102E200039603968786800F0D9FB034618460837DE
:102E3000BD4680BD80B582B000AF7860786800F094
:102E40002BFC034618460837BD4680BD80B584B0CC
:102E500000AFF860B9607A607A68B968F86800F025
:102E6000FCF8034618461037BD4680BD80B582B0D9
:102E700000AF7860786800F016F903461846083706
:102E8000BD4680BD80B584B000AFF860B9607A609F
:102E90007A68B968F86800F015F9034618461037E3
:102EA000BD4680BD80B582B000AF7860786800F024
:102EB0002FF9034618460837BD4680BD80B582B05D
:102EC00000AF7860786800F036F903461846083796
:102ED000BD4680BD80B582B000AF7860396039688A
:102EE000786800F040F9034618460837BD4680BDB3
:102EF00080B582B000AF7860786800F053F903467F
:102F000018460837BD4680BD80B582B000AF7860F6
:102F100039603968786800F051F903461846083777
:102F2000BD4680BD80B582B000AF78603960396839
:102F3000786800F052F9034618460837BD4680BD50
:102F400080B582B000AF786039603968786800F089
:102F500056F9034618460837BD4680BD80B582B095
:102F600000AF7860786800F05DF9034618460837CE
:102F7000BD4680BD80B582B000AF7860786800F053
:102F800099FB034618460837BD4680BD80B483B020
:102F900000AF0346FB71FB7903F01F03012202FA25
:102FA00003F1064A97F907305B09403342F82310D2
:102FB00000BF0C37BD465DF8047B704700E100E0C0
:102FC00080B584B000AF78607B681B68102118461C
:102FD000FFF79AFF7B681B681846FFF747FFF8600A
:102FE0007B681A697B689B69D31AFA68934228BF89
:102FF0001346FB607B6818687B689A687B689B69EE
:103000001344FA681946FFF721FFF8607B689A6954
:10301000FB681A447B689A617B681A697B689B69C4
:10302000D31AFB60FB68072B01D90723FB607B6881
:103030001B68F9681846FFF74DFFFB68002B08D0A6
:103040007B681B681846FFF711FF0246FB68934236
:10305000BAD900BF1037BD4680BD80B487B000AF7D
:10306000F860B9607A6000237B610FE0FB685B6801
:1030700003F01003002B0ED1FB68196ABA687B6954
:103080001344CAB21A707B6901337B617A697B6829
:103090009A42EBD300E000BF7B6918461C37BD465F
:1030A0005DF8047B704780B483B000AF78607B68C4
:1030B0005B681B0A03F00F0318460C37BD465DF82A
:1030C000047B704780B487B000AFF860B9607A6065
:1030D00000237B610FE0FB685B6803F08003002B3B
:1030E0000ED1BA687B6913441B781A46FB681A62D2
:1030F0007B6901337B617A697B689A42EBD300E09C
:1031000000BF7B6918461C37BD465DF8047B7047DD
:1031100080B485B000AF78607B685B681B0B03F000
:103120000F03FB60FB68C3F1080318461437BD4664
:103130005DF8047B704780B483B000AF78607B6833
:103140001B6843F480727B681A6000BF7B681B6851
:1031500003F48073002BF9D1002318460C37BD46C9
:103160005DF8047B704780B483B000AF786039604D
:103170003B68002B02D03B68082B02D96FF002039A
:103180000AE07B681B6823F00F023B6803F00F0323
:103190001A437B681A60002318460C37BD465DF859
:1031A000047B704780B483B000AF78607B68DB68D5
:1031B00018460C37BD465DF8047B704780B483B079
:1031C00000AF786039607B683A68DA60002318469F
:1031D0000C37BD465DF8047B704780B483B000AF08
:1031E000786039607B689A683B681A437B689A60AC
:1031F000002318460C37BD465DF8047B704780B449
:1032000083B000AF786039607B689A683B68DB43C5
:103210001A407B689A60002318460C37BD465DF85B
:10322000047B704780B584B000AF78607B681B6812
:10323000964A934217D07B681B68954A934210D0F8
:103240007B681B68934A934209D07B681B68924A4B
:10325000934201D1032307E04FF0FF3304E0022340
:1032600002E0012300E00023FB608C4AFB6852F877
:103270002330002B14D18A4AFB6852F82330002BEC
:103280000ED17B681B684FF0FF311846FFF758FEE0
:103290007B681B684FF0FF311846FFF735FE19E0D9
:1032A0007F4AFB6852F82330002B06D07B681B69ED
:1032B000002B02D06FF00503FFE0784AFB6852F85C
:1032C0002330002B06D07B68DB68002B02D06FF028
:1032D0000503F2E07B6800225A617B6800229A6154
:1032E0007B68DB68002B71D07B685B68002B02D1A8
:1032F0006FF00203E1E07B681B68644A934217D0D9
:103300007B681B68624A934210D07B681B68614AE5
:10331000934209D07B681B685F4A934201D1032323
:1033200007E04FF0FF3304E0022302E0012300E056
:1033300000235A497A6841F823207B681B681846A5
:10334000FFF7B0FDB8607B68DA687B685B69D31A09
:10335000BA68934228BF1346BB607B6818687B68D5
:103360005A687B685B691344BA681946FFF78AFD9F
:1033700002467B685B691A447B685A617B685A69BC
:103380007B68DB689A421BD1FB68002B13D0FB687B
:103390005BB2012B0DD0FB685BB2022B07D0FB6840
:1033A0005BB2032B01D1582306E0002304E0222363
:1033B00002E00F2300E00E231846FFF7E7FD05E0CB
:1033C0007B681B6840211846FFF7ACFD7B681B69D2
:1033D000002B71D07B689B68002B0ED17B681B682B
:1033E0004FF0FF311846FFF7ABFD7B681B681846AE
:1033F000FFF764FD6FF002035FE07B681B68234A00
:10340000934217D07B681B68214A934210D07B6897
:103410001B68204A934209D07B681B681E4A93426E
:1034200001D1032307E04FF0FF3304E0022302E061
:10343000012300E000231A497A6841F823207B68C1
:103440001B6810211846FFF76DFD7B681B680B2178
:103450001846FFF767FD7868FFF7B2FD7B681A69C9
:103460007B689B699A4227D1FB68002B20D0FB68C0
:103470005BB2012B1AD0FB685BB2022B14D0FB6845
:103480005BB2032B0ED1582313E000BF0020044091
:10349000003004400040044000140840240D002087
:1034A000340D0020002304E0222302E00F2300E07B
:1034B0000E231846FFF76AFD002318461037BD4655
:1034C00080BD00BF80B584B000AF786039607B6894
:1034D0001A4A934214D07B68194A93420ED07B68F3
:1034E000184A934208D07B68174A934201D10323BC
:1034F00007E04FF0FF3304E0022302E0012300E085
:103500000023FB60114AFB6852F82330BB60BB68A4
:10351000002B0DD0BB68DB69002B09D00B4AFB6880
:10352000002142F82310BB68DB693968B868984706
:10353000002318461037BD4680BD00BF0020044060
:10354000003004400040044000140840240D0020D6
:1035500080B584B000AF786039607B681A4A9342C6
:1035600014D07B68194A93420ED07B68184A934264
:1035700008D07B68174A934201D1032307E04FF03C
:10358000FF3304E0022302E0012300E00023FB609C
:10359000114AFB6852F82330BB60BB68002B0DD08A
:1035A000BB68DB69002B09D00B4AFB68002142F89D
:1035B0002310BB68DB693968B86898470023184650
:1035C0001037BD4680BD00BF0020044000300440DD
:1035D0000040044000140840340D002080B584B041
:1035E00000AF786039607B68184A934214D07B68DA
:1035F000174A93420ED07B68164A934208D07B68E4
:10360000154A934201D1032307E04FF0FF3304E052
:10361000022302E0012300E00023FB6039687868A0
:10362000FFF750FF0D4AFB6852F823200C49FB6856
:1036300051F823309A4203D039687868FFF788FF41
:10364000002318461037BD4680BD00BF002004404F
:10365000003004400040044000140840340D0020B5
:10366000240D002080B582B000AF786040217868DA
:10367000FFF766FC002318460837BD4680BD80B5BD
:1036800082B000AF78600B217868FFF759FC002307
:1036900018460837BD4680BD80B582B000AF78605F
:1036A0004FF0FF317868FFF74BFC002318460837CE
:1036B000BD4680BD80B586B000AF78607B68724A39
:1036C000934214D07B68714A93420ED07B68704A53
:1036D000934208D07B686F4A934201D1032307E0ED
:1036E0004FF0FF3304E0022302E0012300E0002357
:1036F0007B617868FFF7FCFB3861674A7B6952F8A9
:103700002330002B0ED1654A7B6952F82330002B01
:1037100008D17B68DB6819467868FFF7F5FB6FF026
:103720000303ACE07B689A683B69134003F00B032A
:10373000002B0AD07868FFF77DFB6FF008017868EE
:10374000FFF76AFB6FF0030399E0534A7B6952F875
:103750002330FB60FB68002B31D0FB68DB68002B5B
:103760002DD0FB681B681846FFF79CFBB860FB6810
:10377000DA68FB685B69D31ABA689A4205D9FB68B4
:10378000DA68FB685B69D31A00E0BB68BB60FB6862
:103790001868FB685A68FB685B691344BA68194685
:1037A000FFF770FBB860FB685A69BB681A44FB6896
:1037B0005A61FB681B6840211846FFF7A5FB374A92
:1037C0007B6952F82330FB60FB68002B06D0FB6856
:1037D0001B69002B02D0F868FFF7F2FB2F4A7B69C8
:1037E00052F823202C497B6951F823309A4217D193
:1037F000FB68002B12D0FB689A69FB681B699A4230
:103800000CD1FB685A69FB68DB689A4206D178687C
:10381000FFF710FB00217868FFF7FEFA00232EE087
:103820001E4A7B6952F82330FB60FB68002B0ED0E8
:10383000FB689A69FB681B699A4208D17868FFF7B0
:103840001EFF00217868FFF783FE002317E0124A6D
:103850007B6952F82330FB60FB68002B0ED0FB68BD
:103860005A69FB68DB689A4208D17868FFF7FAFE6C
:1038700000217868FFF726FE002300E000231846A9
:103880001837BD4680BD00BF002004400030044012
:103890000040044000140840240D0020340D002096
:1038A000F0B589B006AF114E6D4606F10C040FCC91
:1038B0000FC594E8030085E8030096E80E000C4865
:1038C00000F076F878607B68002B01D07B6808E018
:1038D000074800F00FF8064B1B68184600F03AF94D
:1038E000002318460C37BD46F0BD00BFF89000100D
:1038F000440D002080B483B000AF786000BF0C3767
:10390000BD465DF8047B704780B586B000AFF860B7
:103910007B600B46FB7213463B81FB681B7A002BD6
:1039200029D1FB7A5BB25B005BB243F001035BB26F
:10393000DAB2FB689A76FB685868FB6803F11A01F3
:103940003B8901339BB21A4600F096FF7861002351
:103950007B820BE07B8A5A1C7B8A79680B44F9686E
:103960000A44927E1A707B8A01337B827A8A3B8971
:103970009A42EFD316E0FB68586807F10B01002369
:10398000012200F061FD78617B69002B01D07B6929
:1039900009E0FB6858683B89DAB20123796800F0D6
:1039A0008AFD78617B6918461837BD4680BD0000E6
:1039B00084B080B586B000AF786007F1240080E85D
:1039C0000E0097F84530022B02D96FF01503B5E0D1
:1039D00000BF4FF49E71012002F074FD38613B6915
:1039E000002B02D16FF00B03A8E097F844203B694D
:1039F0001A723B691B7A002B0CD13B69043307F127
:103A000024021146184600F03DFE78617B69002BC8
:103A10000DD08FE03B69043307F1240211461846AC
:103A200000F030FC78617B69002B40F0828097F8D1
:103A300045203B691A7007F10B0301220021386908
:103A4000FFF762FF78617B69002B57D1FB7AAD2BC2
:103A500003D06FF015037B6157E007F10B030122E0
:103A600001213869FFF750FF78617B69002B47D14E
:103A7000FB7A1D2B03D06FF015037B6145E007F146
:103A80000B03012202213869FFF73EFF78617B6951
:103A9000002B37D13B691B781A462C4B9A5CFB7A7A
:103AA0009A4203D06FF015037B612EE0284B05226C
:103AB00050213869FFF728FF78617B69002B23D1FB
:103AC0004FF0FF33FB60FB689B07FB60FB689B0FBD
:103AD000FB60FB68DBB223F07E03DAB23B691A734A
:103AE0003B6960221A753B6901225A723B690122C7
:103AF0009A757B683A691A6000231FE000BF04E0F2
:103B000000BF02E000BF00E000BF3B691B7A002B52
:103B100005D13B695B68184600F054FE04E03B6940
:103B20005B68184600F038FC386902F0D9FC7B6904
:103B300004E000BF386902F0D3FC7B6918461837EF
:103B4000BD46BDE8804004B0704700BF1C91001026
:103B50004C0D002080B584B000AF78607B681B7A84
:103B6000002B06D17B685B68184600F02BFEF860DE
:103B700005E07B685B68184600F00EFCF86078682A
:103B800002F0AEFCFB6818461037BD4680BD80B51C
:103B900088B000AF78607B68FB61FB695B689B68FD
:103BA00007F110021146184602F06BFFB861BB69BD
:103BB000002B08D0FB691A68FB695B681946104640
:103BC00000F0D1FA3FE0FB695B689B6807F11402E3
:103BD0001146184602F0CEFEFB695B689B6807F150
:103BE0000C021146184602F0CAFD3B691B69002B06
:103BF00006D03B691B69386979693A695269984707
:103C0000FB68002B0ED1FB691B681A69FB695B68B6
:103C1000DB681946104600F0EFFCFB695B68012287
:103C20001A7110E0FB691B68DB681B69FA6952684E
:103C3000796910469847FB691A68FB695B68194601
:103C4000104600F054FA2037BD4680BD80B586B0DE
:103C500000AF786039603B68002B03D03B689B68FD
:103C6000002B02D16FF015037FE03B689B681B6857
:103C7000002B02D16FF0570377E007F108031846D5
:103C800003F038F8BB68184603F03EF83B689B68C1
:103C90001B6839687868984778617B69002B5ED12A
:103CA0007B681B681C33184603F024F87B681B688C
:103CB0003A689268DA6000233B6122E07B681B6807
:103CC00099683A691346DB009B1ADB000B44083302
:103CD00000220121184602F0E3FC78617B69002B89
:103CE0001FD17B681B6899683A691346DB009B1AF1
:103CF000DB000B443033184602F0FCFF3B69013314
:103D00003B613B685B683A699A42D7D37B681B6822
:103D10009A6901329A61BB68184602F0FFFF0023DE
:103D200023E000BF0023FB600FE07B681B689968FD
:103D30003A691346DB009B1ADB000B449B6818466C
:103D400002F0F2FCFB680133FB60FA683B699A42BF
:103D5000EBD37B681B68184600F00BF800E000BF4F
:103D6000BB68184602F0DAFF7B6918461837BD4673
:103D700080BD90B585B000AF78607B68002B02D124
:103D80006FF015036BE07B689B69002B01D100236A
:103D900065E00023FB6047E07B689968FA6813469A
:103DA000DB009B1ADB000B449B68184602F0BCFC4E
:103DB000B860BB68002B01D0BB6850E07B68996895
:103DC000FA681346DB009B1ADB000B441B6B18469A
:103DD00002F0AEFF7B681B69002B22D07B689968DC
:103DE000FA681346DB009B1ADB000B44DB69002BEF
:103DF00017D07B6818697B689968FA681346DB00FE
:103E00009B1ADB000B44DC687B689968FA681346F0
:103E1000DB009B1ADB000B4410331A46214600F0EE
:103E2000A5FBFB680133FB607B685B68FA689A421C
:103E3000B2D37B68DB69184602F07AFF7B68DB68E7
:103E40005B6878689847B860BB68002B01D0BB6896
:103E500005E07B689B695A1E7B689A6100231846BF
:103E60001437BD4690BD80B584B000AF786039602E
:103E70007B68002B03D07B68DB68002B02D16FF0DE
:103E800015032AE07B68DB689B68002B02D16FF08A
:103E9000570322E07B68DB69184602F035FF7B6838
:103EA000DB689B6807F10802114678689847F8605C
:103EB000FB68002B0AD17B689968BA681346DB005F
:103EC0009B1ADB00CA183B681A6000E000BF7B68E1
:103ED000DB69184602F022FFFB6818461037BD4622
:103EE00080BD80B584B000AF786039607B68002BFE
:103EF00006D07B68DB68002B02D03B68002B02D128
:103F00006FF015031BE07B68DB68DB68002B02D1D8
:103F10006FF0570313E03B681B6B184602F0F4FE8A
:103F20007B68DB68DB683A681268114678689847F6
:103F3000F8603B681B6B184602F0F0FEFB68184601
:103F40001037BD4680BD000080B588B000AFF86076
:103F5000B9607A603B60FB68002B08D0BB68002B1F
:103F600005D07B68002B02D03B68002B02D16FF09C
:103F7000150399E03B681B6B184602F0C5FE002351
:103F8000FB610FE03B689868FA691346DB00134455
:103F90009B001A46BB681344194602F041FCFB69BA
:103FA0000133FB61FA697B689A42EBD3FB681B69BA
:103FB000002B57D03B6810337B613B6803F1200234
:103FC0007B695A603B681B681A467B69DA60BB688C
:103FD0001A7F7B695A723B68FA681A623B683A68D2
:103FE0005A62BB681B7B012B02DC002B03DA0AE060
:103FF000022B04D007E07B690B221A7207E07B6971
:1040000009221A7203E06FF01503BB6134E0FB680C
:10401000DB681B69B96838689847B861BB69002BD1
:1040200027D1FB681B6A002B04D0FB681A6A7B69E6
:104030001A6002E07B691E4A1A60FB6818693B68D7
:10404000DB687A69194600F06DFAB861BB69002B2C
:1040500011D1FB6818693B68D968BB689B691A462F
:1040600000F0ECFA3B681B6B184602F057FE002389
:104070001AE000BF00E000BF0023FB610AE03B68DC
:104080009B6807F110021146184602F0FAFCFB6922
:104090000133FB61FA697B689A42F0D33B681B6B82
:1040A000184602F03BFEBB6918462037BD4680BD6E
:1040B0008F3B001080B582B000AF78607B681B6BCF
:1040C000184602F021FE7B68002B02D16FF0150329
:1040D00009E07B68002283F834207B681B6B18465C
:1040E00002F01CFE002318460837BD4680BD80B58F
:1040F00084B000AF786039607B68002B06D07B68A5
:10410000DB68002B02D03B68002B02D16FF0150357
:1041100025E07B68DB685B69002B02D16FF05703F9
:104120001DE03B681B6B184602F0EEFD7B681B69C7
:10413000002B07D07B681A693B68DB68194610467C
:1041400000F038FA7B68DB685B6939687868984703
:10415000F8603B681B6B184602F0E0FDFB681846F0
:104160001037BD4680BD80B584B000AF786039603F
:104170007B68002B06D07B68DB68002B02D03B6895
:10418000002B02D16FF0150331E07B68DB689B697F
:10419000002B02D16FF0570329E03B681B6B1846D8
:1041A00002F0B2FD7B681B69002B07D07B681A699F
:1041B0003B68DB681946104600F01EFA3B689B68B6
:1041C00007F108021146184602F05BFCF860FB6834
:1041D000002BF3D07B68DB689B6939687868984767
:1041E000F8603B681B6B184602F098FDFB681846A8
:1041F0001037BD4680BD80B483B000AF78603960B1
:104200003B68002B01D1012301E03B681B79184674
:104210000C37BD465DF8047B704780B584B000AFB5
:10422000786039607B68002B06D07B68DB68002BE8
:1042300002D03B68002B01D101231EE07B68DB68C4
:104240001B6A002B01D1012317E03B681B6B18464A
:1042500002F05AFD7B68DB681B6A3968786898470A
:104260000346FB603B681B6B184602F057FDFB687A
:10427000002B14BF01230023DBB218461037BD46C4
:1042800080BD000080B584B000AF786039603B68C5
:10429000002B03D03B68DB68002B02D16FF01503C5
:1042A0003FE03B68DB681B68002B02D16FF05703CF
:1042B00037E03B681B68042B02D96FF0150330E030
:1042C0003B681B68194A52F82330002B08D1386824
:1042D00000F02EF8F860FB68002B01D0FB6820E0AE
:1042E0003B68DB681B68396878689847F860FB684A
:1042F000002B01D0FB6814E03B681A687B681B68E0
:104300000A4951F822201A607B681B681B681A79D9
:104310000132D2B21A717B681B683A68D2681A619E
:10432000002318461037BD4680BD00BF540D002045
:1043300080B584B000AF78601821012002F0C2F887
:10434000F860FB68002B02D16FF00B031DE0FB68E7
:10435000184602F0CFFCFB6800221A717B681A68CD
:10436000FB689A607B685A68FB68DA607B68DA6889
:10437000FB681A617B681A69FB685A617B681B6875
:104380000449FA6841F82320002318461037BD4637
:1043900080BD00BF540D002080B582B000AF7860B2
:1043A0007B68002B03D07B681B69002B02D16FF068
:1043B000150317E07B681B68002B05D07B681B6822
:1043C0009B68184600F012F87B681B69DB68002BBD
:1043D00002D16FF0570305E07B681B69DB687868E2
:1043E0009847034618460837BD4680BD80B584B05F
:1043F00000AF7860134A7B6852F82330FB60FB689B
:104400001B79002B05D0FB681B79013BDAB2FB68F6
:104410001A71FB681B79002B0FD1FB681B681846CB
:1044200002F086FCFB68002B07D0F86802F058F811
:10443000044A7B68002142F8231000BF1037BD46B4
:1044400080BD00BF540D002090B587B000AFF8606C
:10445000B96011461A460B46FB711346BB71FB68E7
:10446000002B03D0FB681B69002B02D16FF01503F2
:104470001DE0FB681B695B68002B02D16FF05703DE
:1044800015E0FB681B681B68184602F03DFCFB68E2
:104490001B695C68BB79FA79B968F868A0477861EC
:1044A000FB681B681B68184602F038FC7B691846DD
:1044B0001C37BD4690BD90B587B000AFF860B960BD
:1044C00011461A460B46FB711346BB71FB68002B65
:1044D00003D0FB681B69002B02D16FF015031DE0B0
:1044E000FB681B699B68002B02D16FF0570315E036
:1044F000FB681B681B68184602F006FCFB681B691A
:104500009C68BB79FA79B968F868A0477861FB685C
:104510001B681B68184602F001FC7B6918461C37B3
:10452000BD4690BD80B584B000AFF860B9607A60D8
:10453000FB68002B03D0FB685B68002B02D16FF097
:1045400015030FE0FB685B685B68002B02D16FF01E
:10455000570307E0FB685B685B687A68B968F868CE
:104560009847034618461037BD4680BD80B584B0D5
:1045700000AFF860B9607A60FB68002B03D0FB687D
:104580005B68002B02D16FF015030FE0FB685B68DE
:104590009B68002B02D16FF0570307E0FB685B6854
:1045A0009B687A68B968F8689847034618461037D8
:1045B000BD4680BD80B582B000AF786039607B6851
:1045C000002B03D07B685B68002B02D16FF01503D2
:1045D0000EE07B685B689B69002B02D16FF057038C
:1045E00006E07B685B689B69396878689847034692
:1045F00018460837BD4680BD80B582B000AF7860F0
:1046000039607B68002B03D07B685B68002B02D18C
:104610006FF015030EE07B685B68DB69002B02D14D
:104620006FF0570306E07B685B68DB693968786880
:104630009847034618460837BD4680BD80B584B00C
:1046400000AFF860B9607A60FB68002B03D0FB68AC
:104650005B68002B02D16FF015030FE0FB685B680D
:104660001B6A002B02D16FF0570307E0FB685B6801
:104670001B6A7A68B968F868984703461846103785
:10468000BD4680BD80B584B000AF786039603B68BE
:10469000002B03D03B68DB68002B02D16FF01503C1
:1046A0004DE03B68DB681B68002B02D16FF05703BD
:1046B00045E03B681B68082B02D96FF015033EE00C
:1046C0003B681B68204A52F82330002B08D1386819
:1046D00000F03CF8F860FB68002B01D0FB682EE08E
:1046E0003B68DB681B68396878689847F860FB6846
:1046F000002B01D0FB6822E03B681A687B681B68CE
:10470000114951F822201A607B681B681B681A79CE
:104710000132D2B21A717B681B683A68D2681A619A
:104720007B681B683A68D2691A627B681B683A68C2
:104730001433103292E8030083E803000023184684
:104740001037BD4680BD00BF680D002080B584B025
:1047500000AF78601C21012001F0B4FEF860FB6816
:10476000002B02D16FF00B0325E0FB68184602F026
:10477000C1FAFB6800221A717B681A68FB689A60AC
:104780007B685A68FB68DA607B685A7AFB681A743F
:104790007B689A7AFB685A747B68DA68FB685A61AE
:1047A0007B689A69FB689A617B681B680449FA68B0
:1047B00041F82320002318461037BD4680BD00BFB6
:1047C000680D002080B582B000AF78607B68002B58
:1047D00003D07B681B69002B02D16FF0150317E033
:1047E0007B681B68002B05D07B681B689B6818469C
:1047F00000F012F87B681B695B69002B02D16FF037
:10480000570305E07B681B695B6978689847034636
:1048100018460837BD4680BD80B584B000AF7860CB
:10482000144A7B6852F82330FB60FB681B79002B2D
:1048300005D0FB681B79013BDAB2FB681A71FB6893
:104840001B79002B11D1FB681B68184602F070FA27
:10485000FB68002B09D0F86801F042FE0023FB60E2
:10486000044A7B68002142F8231000BF1037BD4680
:1048700080BD00BF680D002080B586B000AFF86035
:10488000B9601346FB80FB68002B03D0FB681B69F3
:10489000002B02D16FF015031CE0FB681B695B68FD
:1048A000002B02D16FF0570314E0FB681B681B68F4
:1048B000184602F029FAFB681B695B68FA88B96838
:1048C000F86898477861FB681B681B68184602F017
:1048D00025FA7B6918461837BD4680BD80B586B07D
:1048E00000AFF860B9607A60FB68002B06D0FB6807
:1048F0005B69002B02D0BB68002B02D16FF015035F
:104900001AE0FB685B695B68002B02D16FF057030C
:1049100012E0FB681B68184602F0F6F9FB685B6959
:104920005B687A68B968F86898477861FB681B68C3
:10493000184602F0F3F97B6918461837BD4680BD6A
:1049400080B586B000AFF860B9607A60FB68002B74
:1049500006D0FB685B69002B02D0BB68002B02D13C
:104960006FF015031AE0FB685B699B68002B02D1AE
:104970006FF0570312E0FB681B68184602F0C4F999
:10498000FB685B699B687A68B968F86898477861E2
:10499000FB681B68184602F0C1F97B691846183796
:1049A000BD4680BDB0B500AFFDF766FE054BD3E94F
:1049B0000023541C43F10005024BC3E9004500BF2E
:1049C000B0BD00BF900D002080B582B000AF786010
:1049D0007868FDF743FF00BF0837BD4680BD80B54E
:1049E00082B000AF78607B684FF47A7202FB03F309
:1049F0001846FDF733FF00BF0837BD4680BD80B5C0
:104A000000AF0020FCF76EF800BF80BD80B500AF9E
:104A10000120FCF767F800BF80BD80B500AF022021
:104A2000FCF760F800BF80BD80B500AF0320FCF745
:104A300059F800BF80BD000080B500AF0248FCF708
:104A400043FA00BF80BD00BF00D0014080B500AF79
:104A50000248FCF739FA00BF80BD00BF00E001400A
:104A600080B500AF0248FCF72FFA00BF80BD00BF41
:104A700000F0014080B483B000AF03463960FB71A1
:104A800097F90730002B0BDA3B68DAB20C49FB7957
:104A900003F00F03043B5201D2B20B441A7609E033
:104AA0003B68DAB2074997F907305201D2B20B449A
:104AB00083F8002300BF0C37BD465DF8047B7047C8
:104AC00000ED00E000E100E080B582B000AF78606A
:104AD0007B68013BB3F1807F01D301230FE00A4AD9
:104AE0007B68013B536007214FF0FF30FFF7C2FFA7
:104AF000054B00229A60044B07221A6000231846D7
:104B00000837BD4680BD00BF10E000E080B500AFB3
:104B1000074B1B68074AA2FB03239B091846FFF7B4
:104B2000D3FF0120FDF79AFE0346184680BD00BF63
:104B3000E0050020D34D621080B500AFFFF7E6FF1F
:104B40000346184680BD80B483B000AF78603960FA
:104B50003B68002B4CD03B68012B47D03B68022BB5
:104B600042D03B68032B3DD03B68042B38D03B68D8
:104B7000052B33D03B68062B2ED03B68072B29D062
:104B80003B68082B24D03B68092B1FD03B680A2BBD
:104B90001AD03B680B2B15D03B680C2B10D03B6810
:104BA0000D2B0BD03B680E2B06D03B680F2B01D191
:104BB0004F231EE000231CE04E231AE04D2318E093
:104BC0004C2316E04B2314E04A2312E0492310E063
:104BD00048230EE047230CE046230AE0452308E083
:104BE000442306E01F2304E01E2302E01D2300E00F
:104BF0001C2318460C37BD465DF8047B7047000047
:104C000080B58AB000AF786007F1100300221A6007
:104C10005A609A60DA607B68404A93425BD07B6856
:104C20003E4A934203D07B683D4A934251D07B6811
:104C30003A4A934207D07B68394A934203D07B6853
:104C4000384A934243D07B68344A93420BD07B6806
:104C5000334A934207D07B68324A934203D07B6841
:104C6000314A934231D07B682C4A93420FD07B6803
:104C70002B4A93420BD07B682A4A934207D07B6829
:104C8000294A934203D07B68284A93421BD07B6811
:104C9000224A934215D07B68214A934211D07B6807
:104CA000204A93420DD07B681F4A934209D07B680B
:104CB0001E4A934205D07B681D4A934201D10A23C4
:104CC0000AE0002308E0092306E0082304E00723A4
:104CD00002E0062300E005233B61164B7B627B6A02
:104CE0005B6807F1100207F10C01184601F090FE15
:104CF00038623B6A002B0DD1FB689B68002B05D006
:104D0000FB689B68FA68D268104698477868FEF797
:104D100033F800E000BF2837BD4680BD00000140E9
:104D2000001001400020014000300140000C08400C
:104D3000001008403800002080B584B000AF7860D3
:104D40007B681B4A934214D07B681A4A93420ED068
:104D50007B68194A934208D07B68184A934201D174
:104D6000032307E04FF0FF3304E0022302E00123B6
:104D700000E000235B01124A1344FB607868FEF7F1
:104D8000F9F8FB681B68002B0ED0FB689B69002BB1
:104D900003D1FB681B69002B03D1FB68DB68002B88
:104DA00002D0F868FEF7DAF800BF1037BD4680BDC4
:104DB000002004400030044000400440001408403B
:104DC000C00D002080B500AF0248FFF7B5FF00BF5F
:104DD00080BD00BF0020044080B500AF0248FFF74F
:104DE000ABFF00BF80BD00BF0030044080B500AF06
:104DF0000248FFF7A1FF00BF80BD00BF0040044094
:104E000080B500AF0248FFF797FF00BF80BD00BF2D
:104E10000014084080B500AF0248FFF7F1FE00BF64
:104E200080BD00BF0000014080B500AF0248FFF721
:104E3000E7FE00BF80BD00BF0010014080B500AF9D
:104E40000248FFF7DDFE00BF80BD00BF002001402B
:104E500080B58CB000AF78602D4BFB622D4BBB62F0
:104E600007F10C0300221A605A609A60DA607968D0
:104E70000020FFF768FE0346FB60274A7B68083383
:104E80005B01134404331B68234943F004027B682D
:104E900008335B010B4404331A60FB6A5B68002B28
:104EA00016D0FB6A5B6807F10C0207F12001184677
:104EB00001F0AEFD78627B6A002B09D13B6A9B68EA
:104EC000002B05D03B6A9B683A6AD2681046984727
:104ED000BB6A5B68002B16D0BB6A5B6807F10C02EB
:104EE00007F11C01184601F093FD78627B6A002BE4
:104EF00009D1FB699B68002B05D0FB699B68FA69A7
:104F0000D2681046984700BF3037BD4680BD00BF0D
:104F100050000020600000200080024080B500AFFB
:104F20000020FFF795FF00BF80BD80B500AF0120D6
:104F3000FFF78EFF00BF80BD80B500AF0220FFF7F6
:104F400087FF00BF80BD80B500AF0320FFF780FF63
:104F500000BF80BD80B500AF0420FFF779FF00BF20
:104F600080BD80B500AF0520FFF772FF00BF80BD98
:104F700080B500AF0620FFF76BFF00BF80BD80B596
:104F800000AF0720FFF764FF00BF80BD80B500AF12
:104F90000820FFF75DFF00BF80BD80B500AF09208E
:104FA000FFF756FF00BF80BD80B500AF0A20FFF7B6
:104FB0004FFF00BF80BD80B500AF0B20FFF748FF5B
:104FC00000BF80BD80B500AF0C20FFF741FF00BFE0
:104FD00080BD80B500AF0D20FFF73AFF00BF80BD58
:104FE00080B500AF0E20FFF733FF00BF80BD80B556
:104FF00000AF0F20FFF72CFF00BF80BD80B584B04D
:1050000000AFFCF7F5FB0346FB60124BBB60FB688F
:1050100003F04003002B19D04020FCF7F3FBBB68E2
:105020005B683A461146184601F0A4FC78607B683C
:10503000002B0ADB3B689B68002B07D03B689B6812
:105040003A68D2681046984700E000BF1037BD4666
:1050500080BD00BF2800002080B588B000AF07F1F8
:10506000080300221A605A609A60DA600223BB606B
:105070000E4BFB61FB695B6807F10802391D18469E
:1050800001F0C6FCB861BB69002B0AD17B689B6844
:10509000002B07D07B689B687A68D26810469847D7
:1050A00000E000BF2037BD4680BD00BF6800002083
:1050B00080B588B000AFF860B9607A607B68FB614A
:1050C000FB691B68DB69BB61FB691B685B68002BC4
:1050D0001DD0FB691B685B68012B16D0FB691B6840
:1050E0005B68022B0FD0FB691B685B68032B08D041
:1050F000FB691B685B68042B01D1354B08E000237A
:1051000006E0344B04E0344B02E0344B00E0344B17
:105110007B6100BFBB69DA68FB699B681946104672
:10512000FFF77BF80346002B0AD0BB69DA68FB69FE
:105130005B6819461046FFF770F80346002BE9D16B
:1051400000BF7B691B6B03F00103002BF9D1BB6827
:10515000002B21D1FB695B69002B05D0FB695B69E2
:10516000FA69926910469847FB695B681846FEF732
:10517000A1FFFB699B681846FEF79CFFFB69DB6893
:10518000184601F0ADF9FB691B69184601F0A8F952
:10519000F86901F0A5F918E07B699A68BB689B681B
:1051A0001A437B699A60BB689B6819460D4801F0F9
:1051B000E7FD02467B699B681A437B699A607B69BD
:1051C0005B6843F020027B695A602037BD4680BD92
:1051D00000E40B4000E00B400080044000700440FD
:1051E000006004400000FFFF80B485B000AF78602D
:1051F0007B68DB69FB607B685B68042B2FD801A2AE
:1052000052F823F0195200102752001035520010A6
:105210004352001051520010FB6821225A61FB6872
:1052200001221A611CE0FB6822225A61FB680222FB
:105230001A6115E0FB6823225A61FB6803221A6198
:105240000EE0FB682F225A61FB680F221A6107E00B
:10525000FB6830225A61FB6810221A6100E000BF2F
:105260001437BD465DF8047B704700BF80B58AB037
:1052700000AF78607B68DB697B627B685B68042BCE
:1052800000F2D58001A252F823F000BFA152001015
:10529000DF5200103353001087530010DB5300100F
:1052A000704A07F1180307CA83E807007B681B7B75
:1052B000002B02D0012B07D00DE06B4A07F10C0345
:1052C00007CA83E8070009E0684A07F10C0307CA28
:1052D00083E8070002E06FF01503BFE0AAE0644A2C
:1052E00007F1180307CA83E807007B681B7B022BC2
:1052F00014D0022B19DC002B02D0012B07D014E0B4
:105300005C4A07F10C0307CA83E8070010E05A4A19
:1053100007F10C0307CA83E8070009E0574A07F1C1
:105320000C0307CA83E8070002E06FF0150395E05D
:1053300080E0534A07F1180307CA83E807007B6837
:105340001B7B022B14D0022B19DC002B02D0012B6B
:1053500007D014E04B4A07F10C0307CA83E80700A3
:1053600010E0494A07F10C0307CA83E8070009E087
:10537000464A07F10C0307CA83E8070002E06FF012
:1053800015036BE056E0424A07F1180307CA83E8A9
:1053900007007B681B7B022B14D0022B19DC002B2F
:1053A00002D0012B07D014E03A4A07F10C0307CAD8
:1053B00083E8070010E0384A07F10C0307CA83E8C6
:1053C000070009E0354A07F10C0307CA83E8070024
:1053D00002E06FF0150341E02CE0314A07F11803B9
:1053E00007CA83E807007B681B7B022B14D0022BC3
:1053F00019DC002B02D0012B07D014E0294A07F159
:105400000C0307CA83E8070010E0274A07F10C03E2
:1054100007CA83E8070009E0244A07F10C0307CA1A
:1054200083E8070002E06FF0150317E002E06FF079
:10543000150313E07B6A1B685B7987F822307B6A6F
:105440001B685B79BB7507F118031846FBF740F939
:1054500007F10C031846FBF73BF9002318462837E1
:10546000BD4680BD009000100C90001018900010F8
:1054700024900010309000103C90001048900010D4
:1054800054900010609000106C9000107890001004
:1054900084900010909000109C900010A890001034
:1054A000B4900010C0900010CC900010D890001064
:1054B00080B58AB000AF786039607B68DB693B6299
:1054C0003B685B694FF47A7203FB02F27B685B69AD
:1054D0001344FB613B689B694FF47A7203FB02F251
:1054E0007B689B691344BB613B6A5B68FA699A42BB
:1054F00005D13B6A9B68BA699A4200F08A807B6852
:105500005B68002B19D07B685B68012B13D07B682C
:105510005B68022B0DD07B685B68032B07D07B6830
:105520005B68042B01D13D4B08E0002306E03C4BB7
:1055300004E03C4B02E03C4B00E03C4B7B617B6970
:105540001B693B617869FCF739FB0346FB60FB682C
:105550005A08374B1344FA68B3FBF2F3BB603B6A5B
:105560005B68FA699A4221D0FB69002B02D10123C2
:105570007B6204E0FA69BB68B2FBF3F37B627B6A8F
:10558000FF2B03D92B4801F059FF3EE07B691B69D3
:1055900023F0FF027B691A61796AFF2001F0F0FBBA
:1055A00002467B691B691A437B691A613B6A9B68E7
:1055B000BA699A4222D0BB69002B02D101237B62D7
:1055C00004E0BA69BB68B2FBF3F37B627B6AFF2B32
:1055D00003D9194801F032FF17E07B691B6923F4F6
:1055E0007F427B691A61796A4FF47F4001F0C8FB02
:1055F00002467B691B691A437B691A613B6AFA6937
:105600005A603B6ABA699A6004E07B693A691A6138
:1056100000E000BF2837BD4680BD00BF00E40B405E
:1056200000E00B4000800440007004400060044033
:1056300000CA9A3B209100104C910010F0B58FB039
:1056400006AF78607B68DB69BB61BB691B687B6107
:1056500007F1080300221A605A601A817B681B7BDD
:10566000002B0CBF01230023DBB23B727B681B7B4A
:10567000012B0CBF01230023DBB27B727B681B7BF9
:10568000022B0CBF01230023DBB2BB727B685B687B
:10569000002B19D07B685B68012B13D07B685B689B
:1056A000022B0DD07B685B68032B07D07B685B689F
:1056B000042B01D16E4C08E0002406E06D4C04E0A0
:1056C0006D4C02E06D4C00E06D4C7B691B689C46A4
:1056D0007B691D797B689E6802AB07F1080207CAE7
:1056E00003C31A80019600956346002201212046DB
:1056F000FCF7BCF8F861FB69002B03D06FF01503D1
:10570000FB618DE07868FFF7B1FDF861FB69002B64
:1057100001D0FB69A7E07B685B68002B19D07B6830
:105720005B68012B13D07B685B68022B0DD07B6814
:105730005B68032B07D07B685B68042B01D14C4B63
:1057400008E0002306E04B4B04E04B4B02E04B4BE0
:1057500000E04B4B7A68527B11461846FCF708FB79
:10576000F861FB69002B03D06FF01503FB6157E074
:105770007B685B68002B19D07B685B68012B13D0BA
:105780007B685B68022B0DD07B685B68032B07D0BE
:105790007B685B68042B01D1354B08E0002306E0F1
:1057A000344B04E0344B02E0344B00E0344B012135
:1057B0001846FCF7CDFAF861FB69002B03D06FF0B7
:1057C0001503FB612CE07B685B68002B19D07B68BC
:1057D0005B68012B13D07B685B68022B0DD07B6864
:1057E0005B68032B07D07B685B68042B01D1204BDF
:1057F00008E0002306E01F4B04E01F4B02E01F4BB4
:1058000000E01F4B08211846FCF788FAF861FB6995
:10581000002B03D06FF01503FB6101E0002322E0B1
:105820007B685B68002B19D07B685B68012B13D009
:105830007B685B68022B0DD07B685B68032B07D00D
:105840007B685B68042B01D1094B08E0002306E06C
:10585000084B04E0084B02E0084B00E0084B1846F8
:10586000FCF74AF9FB6918462437BD46F0BD00BF76
:1058700000E40B4000E00B40008004400070044056
:105880000060044080B586B000AF786039603B6846
:10589000002B03D03B689B69002B02D16FF01503EE
:1058A00072E02421012000F00DFE38613B69002BDD
:1058B00002D16FF00B0367E01821012000F002FE17
:1058C000F860FB68002B03D16FF00B037B6154E0A1
:1058D0003B689B69BB603B681A683B695A603B68E0
:1058E0005A683B699A603B681A7A3B691A733B684D
:1058F0005A7A3B695A733B689A7A3B699A73FB6898
:10590000BA681A603B69FA68DA613B695B68042B24
:1059100003D96FF015037B612FE03869FFF78EFE26
:1059200078617B69002B25D1BB689B68002B19D05F
:10593000BB68DA68BB681B699A4203D36FF0150332
:105940007B611AE0FB6803F10C02BB689B68194697
:105950001046FEF77BF978617B69002B0CD1386922
:10596000FFF742FC0220FFF73AF87B683A691A60B9
:10597000002309E000BF00E000BFF86800F0B0FDC0
:10598000386900F0ADFD7B6918461837BD4680BD0B
:1059900080B582B000AF78607B68002B02D16FF0D9
:1059A00015032AE07B685B68002B19D07B685B6875
:1059B000012B13D07B685B68022B0DD07B685B6882
:1059C000032B07D07B685B68042B01D10D4B08E0EB
:1059D000002306E00C4B04E00C4B02E00C4B00E013
:1059E0000C4B1846FCF788F87B68DB69184600F01A
:1059F00077FD786800F074FD002318460837BD462F
:105A000080BD00BF00E40B4000E00B40008004407C
:105A1000007004400060044080B58EB000AFF860B4
:105A2000B9607A603B60FB685B68002B19D0FB684B
:105A30005B68012B13D0FB685B68022B0DD0FB6801
:105A40005B68032B07D0FB685B68042B01D16C4BB0
:105A500008E0002306E06B4B04E06B4B02E06B4B6D
:105A600000E06B4BFB62FB68DB69BB6200237B637E
:105A7000FB681B7B7B62FB685B68664A52F82330DD
:105A80007A6A9A420ED0F868FFF7D8FD38633B6B0C
:105A9000002B01D03B6B17E2FB685B685D497A6ABB
:105AA00041F82320FB6A5B6823F47022FB6A5A608A
:105AB000FB681B7B1A460123934019464FF4702064
:105AC00001F05EF90246FB6A5B681A43FB6A5A60A2
:105AD0002421786800F0F6FC38623B6A002B02D182
